:1000000041C066C15AC059C058C057C056C055C03B
:1000100054C053C052C051C050C04FC04EC04DC05C
:100020004CC04BC04AC00403090426036C0069009D
:100030006B0061007600630061006E0040006700A5
:100040006D00610069006C002E0063006F006D00A0
:1000500010035500530042002D0053004800540087
:1000600012011001FF000008C016DC0500010102AA
:1000700000010902120001010080140904000000BF
:100080000000000011241FBECFE5D4E0DEBFCDBFCD
:1000900010E0A0E6B0E0E4E7F7E002C005900D92C2
:1000A000A236B107D9F710E0A2E6B0E001C01D9278
:1000B000A139B107E1F720D25BC3A2CF85B7826037
:1000C00085BF8BB780648BBF08951F93CF93DF9359
:1000D00090917700935097FD87C020917400809194
:1000E00073008D3209F07EC0983009F07BC0CCE0FF
:1000F000D0E0C21BD109C558DF4F83EC8093670065
:100100008AE580936000109262008881807621F0F9
:10011000CE0110D2282F5DC09A8110927000898183
:10012000882321F41092710022E04DC0853019F42B
:100130009093780047C08630B1F58B81813019F4F7
:1001400080E690E004C0823041F482E790E0909332
:1001500076008093750022E122C08330F9F48A8111
:10016000882341F486E290E09093760080937500B6
:1001700024E015C0813041F48AE290E0909376004B
:100180008093750026E20BC0823041F480E590E058
:10019000909376008093750020E101C020E080E418
:1001A0008093620016C0883021F421E08AE790E055
:1001B0000CC0893019F490937A0004C08A3011F48D
:1001C00021E001C020E080E790E0909376008093EA
:1001D00075008F81882321F48E81821708F4282FDF
:1001E00020936100109277008091600084FF49C0E5
:1001F000809161008F3F09F444C0182F893008F0C6
:1002000018E0811B809361008091670098E889273E
:1002100080936700112341F12091750030917600A1
:100220008091620086FF0DC0A8E6B0E080E090E01B
:10023000F901E80FF91FE491ED9301961817C1F742
:1002400008C0912FD901E8E6F0E08D91819391509B
:10025000E1F71150812F90E01F5F0196820F931FED
:10026000909376008093750088E690E0612F2CD003
:10027000612F6C5F6C3019F08FEF80936100609399
:10028000600094E180B3847131F49150D9F71092F9
:10029000780010927200DF91CF911F910895A82FDE
:1002A000B92F80E090E041E050EA609530E009C06D
:1002B0002D9182279795879510F084279527305E9A
:1002C000C8F36F5FA8F30895EADF8D939D930895B7
:1002D000CF93CFB7CF93DF93C395849BE9F7849BEC
:1002E0000BC0849B09C0849B07C0849B05C0849B72
:1002F00003C0849B01C089C06F93C0917400DD2747
:10030000C558DF4F2F9365E5849B03C02F916F91F4
:10031000E6CF0F931F934F9320E040E15F9300B32C
:10032000047104FB27F93F9350E03BE039C014719E
:1003300040642F77012F5F5F1EC0406810B31471B7
:100340002F7752501FC0406400B32F770471D1F152
:100350005F5F00C023C0406210B32F77147191F12A
:100360005F5F00C025C004711027515012F45D5F1B
:100370000000115027952C3F10B3C8F614710127C7
:10038000015027952C3FC8F64227499300B30471CA
:1003900010274F73115027952C3FA8F64695469588
:1003A00010B3147179F00127015027952C3F98F66E
:1003B0006B5A60F3315000B3B0F600C010E41ABFBE
:1003C000002717C03B503195C31BD04010E41ABF23
:1003D0000881033CF9F00B34E9F020917200198197
:1003E000110F1213EDCF093651F10D3211F0013E0C
:1003F00039F7009379003F915F914F911F910F91D1
:100400002F916F91CAB7C6FD67CFDF91CF91CFBF54
:10041000CF91189520917900222369F310917700EC
:10042000112339F534303AF130937700209373007B
:10043000109174003BE0311B309374001CC000919C
:1004400077000130B4F40AE53091600034FD14C047
:1004500000936000C7E6D0E013C0052710E000C09D
:10046000000002BB1AC0052710E0221F1DC010E0CB
:1004700021C04AE502C032ED432FC4E1D0E032E0B2
:1004800011B31461949A02B311BB54E120E865E3FF
:1004900020FF052702BB279517951C3FF0F66695B0
:1004A000B8F7B1F720FF052702BB279517951C3F2A
:1004B000D0F62795179517FF052700001C3F02BBB4
:1004C000B0F629913A9519F70B7E10917800110F2B
:1004D000C651D04002BB11F01093720010E41ABF55
:1004E000006111B31B7E402F4B7E54E05A95F1F70B
:1004F00002BB11BB42BB7FCF87B3826287BBB9D03F
:100500002EE088E190E00FB6F894A89581BD0FBE6B
:1005100021BDD4DD8C9A20E040EA5FE004C0A895BC
:10052000CA010197F1F72150D1F78C987894A895DA
:10053000CCDDFDCFFC018181823011F1833028F4C4
:10054000882341F08130C1F413C0833011F184302D
:1005500099F421C082818093630083818093640039
:1005600084818093650085818093660024E018C0B3
:10057000828180FF03C0C19A20E012C0C198FCCFE5
:1005800088B390E09695879581708093630021E011
:1005900007C083E001C085E063E670E0D1D022E0CF
:1005A00083E690E09093760080937500822F089503
:1005B000000000000000000000000000000000003B
:1005C000000000000000000000000000000000002B
:1005D000000000000000000000000000000000001B
:1005E000000000000000000000000000000000000B
:1005F00000000000000000000000000000000000FB
:1006000000000000000000000000000000000000EA
:1006100000000000000000000000000000000000DA
:1006200000000000000000000000000000000000CA
:1006300000000000000000000000000000000000BA
:1006400000000000000000000000000000000000AA
:10065000000000000000000000000000000000009A
:10066000000000000000000000000000000000008A
:100670000895BB9AC398BA98C29A08950F931F938E
:10068000082FC39A95DFC298BA9A92DFC39890DF79
:10069000C39A8EDFBA98C29A8BDFC39889DF10E0C5
:1006A00007FF03C0BA98C29A02C0C298BA9A80DF04
:1006B000C39A7EDFC3981F5F183011F0000FF0CF90
:1006C000BA98C29A75DFC39A73DF86B3C39882FF64
:1006D00003C02FEF3FEF04C0B29BFECF20E030E01D
:1006E000C9011F910F910895EF92FF920F931F93ED
:1006F000CF93DF937C01062F10E0C0E0D0E058DFFD
:10070000C39A56DF110FB2991160C3982196C83071
:10071000D105A9F7F7011083002311F4C298BA9A02
:1007200047DFC39A45DFC398BA98C29A41DF80E099
:1007300090E0DF91CF911F910F91FF90EF9008957E
:10074000CF93DF93EB019ADF892B19F02FEF3FEF67
:100750000BC0B299FECFCE0160E0C6DFCE0101969C
:1007600061E0C2DF20E030E0C901DF91CF91089560
:04077000F894FFCF2B
:020774005AFF2A
:00000001FF
